{
  "_format": "hh-sol-artifact-1",
  "contractName": "Ecommerce",
  "sourceName": "contracts/Ecommerce.sol",
  "abi": [
    {
      "inputs": [],
      "stateMutability": "nonpayable",
      "type": "constructor"
    },
    {
      "anonymous": false,
      "inputs": [
        {
          "indexed": false,
          "internalType": "address",
          "name": "buyer",
          "type": "address"
        },
        {
          "components": [
            {
              "internalType": "uint256",
              "name": "Id",
              "type": "uint256"
            },
            {
              "internalType": "string",
              "name": "name",
              "type": "string"
            },
            {
              "internalType": "string",
              "name": "category",
              "type": "string"
            },
            {
              "internalType": "string",
              "name": "image",
              "type": "string"
            },
            {
              "internalType": "uint256",
              "name": "cost",
              "type": "uint256"
            },
            {
              "internalType": "uint256",
              "name": "rating",
              "type": "uint256"
            },
            {
              "internalType": "uint256",
              "name": "stock",
              "type": "uint256"
            }
          ],
          "indexed": false,
          "internalType": "struct Ecommerce.Item",
          "name": "item",
          "type": "tuple"
        }
      ],
      "name": "AddToCart",
      "type": "event"
    },
    {
      "anonymous": false,
      "inputs": [
        {
          "indexed": false,
          "internalType": "address",
          "name": "buyer",
          "type": "address"
        },
        {
          "indexed": false,
          "internalType": "uint256",
          "name": "orderId",
          "type": "uint256"
        },
        {
          "indexed": false,
          "internalType": "uint256",
          "name": "itemId",
          "type": "uint256"
        }
      ],
      "name": "Buy",
      "type": "event"
    },
    {
      "anonymous": false,
      "inputs": [
        {
          "indexed": false,
          "internalType": "string",
          "name": "name",
          "type": "string"
        },
        {
          "indexed": false,
          "internalType": "uint256",
          "name": "cost",
          "type": "uint256"
        },
        {
          "indexed": false,
          "internalType": "uint256",
          "name": "stock",
          "type": "uint256"
        }
      ],
      "name": "List",
      "type": "event"
    },
    {
      "anonymous": false,
      "inputs": [
        {
          "indexed": false,
          "internalType": "address",
          "name": "buyer",
          "type": "address"
        },
        {
          "components": [
            {
              "internalType": "uint256",
              "name": "Id",
              "type": "uint256"
            },
            {
              "internalType": "string",
              "name": "name",
              "type": "string"
            },
            {
              "internalType": "string",
              "name": "category",
              "type": "string"
            },
            {
              "internalType": "string",
              "name": "image",
              "type": "string"
            },
            {
              "internalType": "uint256",
              "name": "cost",
              "type": "uint256"
            },
            {
              "internalType": "uint256",
              "name": "rating",
              "type": "uint256"
            },
            {
              "internalType": "uint256",
              "name": "stock",
              "type": "uint256"
            }
          ],
          "indexed": false,
          "internalType": "struct Ecommerce.Item",
          "name": "item",
          "type": "tuple"
        }
      ],
      "name": "RemoveFromCart",
      "type": "event"
    },
    {
      "inputs": [
        {
          "internalType": "uint256",
          "name": "_id",
          "type": "uint256"
        },
        {
          "internalType": "uint256",
          "name": "_count",
          "type": "uint256"
        }
      ],
      "name": "addToCart",
      "outputs": [],
      "stateMutability": "nonpayable",
      "type": "function"
    },
    {
      "inputs": [
        {
          "internalType": "address",
          "name": "",
          "type": "address"
        },
        {
          "internalType": "uint256",
          "name": "",
          "type": "uint256"
        }
      ],
      "name": "cartList",
      "outputs": [
        {
          "internalType": "uint256",
          "name": "count",
          "type": "uint256"
        },
        {
          "components": [
            {
              "internalType": "uint256",
              "name": "Id",
              "type": "uint256"
            },
            {
              "internalType": "string",
              "name": "name",
              "type": "string"
            },
            {
              "internalType": "string",
              "name": "category",
              "type": "string"
            },
            {
              "internalType": "string",
              "name": "image",
              "type": "string"
            },
            {
              "internalType": "uint256",
              "name": "cost",
              "type": "uint256"
            },
            {
              "internalType": "uint256",
              "name": "rating",
              "type": "uint256"
            },
            {
              "internalType": "uint256",
              "name": "stock",
              "type": "uint256"
            }
          ],
          "internalType": "struct Ecommerce.Item",
          "name": "item",
          "type": "tuple"
        }
      ],
      "stateMutability": "view",
      "type": "function"
    },
    {
      "inputs": [],
      "name": "checkout",
      "outputs": [],
      "stateMutability": "payable",
      "type": "function"
    },
    {
      "inputs": [],
      "name": "getCartLength",
      "outputs": [
        {
          "internalType": "uint256",
          "name": "",
          "type": "uint256"
        }
      ],
      "stateMutability": "view",
      "type": "function"
    },
    {
      "inputs": [],
      "name": "itemCount",
      "outputs": [
        {
          "internalType": "uint256",
          "name": "",
          "type": "uint256"
        }
      ],
      "stateMutability": "view",
      "type": "function"
    },
    {
      "inputs": [
        {
          "internalType": "uint256",
          "name": "",
          "type": "uint256"
        }
      ],
      "name": "items",
      "outputs": [
        {
          "internalType": "uint256",
          "name": "Id",
          "type": "uint256"
        },
        {
          "internalType": "string",
          "name": "name",
          "type": "string"
        },
        {
          "internalType": "string",
          "name": "category",
          "type": "string"
        },
        {
          "internalType": "string",
          "name": "image",
          "type": "string"
        },
        {
          "internalType": "uint256",
          "name": "cost",
          "type": "uint256"
        },
        {
          "internalType": "uint256",
          "name": "rating",
          "type": "uint256"
        },
        {
          "internalType": "uint256",
          "name": "stock",
          "type": "uint256"
        }
      ],
      "stateMutability": "view",
      "type": "function"
    },
    {
      "inputs": [
        {
          "internalType": "uint256",
          "name": "_id",
          "type": "uint256"
        },
        {
          "internalType": "string",
          "name": "_name",
          "type": "string"
        },
        {
          "internalType": "string",
          "name": "_category",
          "type": "string"
        },
        {
          "internalType": "string",
          "name": "_image",
          "type": "string"
        },
        {
          "internalType": "uint256",
          "name": "_cost",
          "type": "uint256"
        },
        {
          "internalType": "uint256",
          "name": "_rating",
          "type": "uint256"
        },
        {
          "internalType": "uint256",
          "name": "_stock",
          "type": "uint256"
        }
      ],
      "name": "list",
      "outputs": [],
      "stateMutability": "nonpayable",
      "type": "function"
    },
    {
      "inputs": [
        {
          "internalType": "address",
          "name": "",
          "type": "address"
        }
      ],
      "name": "orderCount",
      "outputs": [
        {
          "internalType": "uint256",
          "name": "",
          "type": "uint256"
        }
      ],
      "stateMutability": "view",
      "type": "function"
    },
    {
      "inputs": [
        {
          "internalType": "address",
          "name": "",
          "type": "address"
        },
        {
          "internalType": "uint256",
          "name": "",
          "type": "uint256"
        }
      ],
      "name": "orders",
      "outputs": [
        {
          "internalType": "uint256",
          "name": "time",
          "type": "uint256"
        },
        {
          "components": [
            {
              "internalType": "uint256",
              "name": "Id",
              "type": "uint256"
            },
            {
              "internalType": "string",
              "name": "name",
              "type": "string"
            },
            {
              "internalType": "string",
              "name": "category",
              "type": "string"
            },
            {
              "internalType": "string",
              "name": "image",
              "type": "string"
            },
            {
              "internalType": "uint256",
              "name": "cost",
              "type": "uint256"
            },
            {
              "internalType": "uint256",
              "name": "rating",
              "type": "uint256"
            },
            {
              "internalType": "uint256",
              "name": "stock",
              "type": "uint256"
            }
          ],
          "internalType": "struct Ecommerce.Item",
          "name": "item",
          "type": "tuple"
        }
      ],
      "stateMutability": "view",
      "type": "function"
    },
    {
      "inputs": [],
      "name": "owner",
      "outputs": [
        {
          "internalType": "address",
          "name": "",
          "type": "address"
        }
      ],
      "stateMutability": "view",
      "type": "function"
    },
    {
      "inputs": [
        {
          "internalType": "uint256",
          "name": "_id",
          "type": "uint256"
        }
      ],
      "name": "removeFromCart",
      "outputs": [],
      "stateMutability": "nonpayable",
      "type": "function"
    },
    {
      "inputs": [],
      "name": "withdraw",
      "outputs": [],
      "stateMutability": "nonpayable",
      "type": "function"
    }
  ],
  "bytecode": "0x608060405234801561001057600080fd5b50336000806101000a81548173ffffffffffffffffffffffffffffffffffffffff021916908373ffffffffffffffffffffffffffffffffffffffff160217905550612daf806100606000396000f3fe6080604052600436106100a75760003560e01c80638da5cb5b116100645780638da5cb5b1461019c578063bfb231d2146101c7578063c63a4e051461020a578063ca29610e14610235578063d49bac1a1461025e578063eea8a7e81461029c576100a7565b806306099d69146100ac5780633ab9bbb6146100b65780633ccfd60b146100df5780636bfb0d01146100f6578063713d856b14610121578063793b8c6d1461015e575b600080fd5b6100b46102c5565b005b3480156100c257600080fd5b506100dd60048036038101906100d89190611d85565b610958565b005b3480156100eb57600080fd5b506100f4610fca565b005b34801561010257600080fd5b5061010b6110f2565b6040516101189190611dd4565b60405180910390f35b34801561012d57600080fd5b5061014860048036038101906101439190611e4d565b6110f8565b6040516101559190611dd4565b60405180910390f35b34801561016a57600080fd5b5061018560048036038101906101809190611e7a565b611110565b604051610193929190612003565b60405180910390f35b3480156101a857600080fd5b506101b1611329565b6040516101be9190612042565b60405180910390f35b3480156101d357600080fd5b506101ee60048036038101906101e9919061205d565b61134d565b60405161020197969594939291906120d4565b60405180910390f35b34801561021657600080fd5b5061021f611527565b60405161022c9190611dd4565b60405180910390f35b34801561024157600080fd5b5061025c6004803603810190610257919061205d565b611571565b005b34801561026a57600080fd5b5061028560048036038101906102809190611e7a565b611878565b604051610293929190612003565b60405180910390f35b3480156102a857600080fd5b506102c360048036038101906102be919061228d565b611aa1565b005b600080600560003373ffffffffffffffffffffffffffffffffffffffff1673ffffffffffffffffffffffffffffffffffffffff168152602001908152602001600020805480602002602001604051908101604052809291908181526020016000905b82821015610555578382906000526020600020906008020160405180604001604052908160008201548152602001600182016040518060e00160405290816000820154815260200160018201805461037e906123b2565b80601f01602080910402602001604051908101604052809291908181526020018280546103aa906123b2565b80156103f75780601f106103cc576101008083540402835291602001916103f7565b820191906000526020600020905b8154815290600101906020018083116103da57829003601f168201915b50505050508152602001600282018054610410906123b2565b80601f016020809104026020016040519081016040528092919081815260200182805461043c906123b2565b80156104895780601f1061045e57610100808354040283529160200191610489565b820191906000526020600020905b81548152906001019060200180831161046c57829003601f168201915b505050505081526020016003820180546104a2906123b2565b80601f01602080910402602001604051908101604052809291908181526020018280546104ce906123b2565b801561051b5780601f106104f05761010080835404028352916020019161051b565b820191906000526020600020905b8154815290600101906020018083116104fe57829003601f168201915b5050505050815260200160048201548152602001600582015481526020016006820154815250508152505081526020019060010190610327565b50505050905060005b815181101561062057600082828151811061057c5761057b6123e3565b5b6020026020010151602001519050600083838151811061059f5761059e6123e3565b5b6020026020010151600001519050808260c0015110156105f4576040517f08c379a00000000000000000000000000000000000000000000000000000000081526004016105eb90612484565b60405180910390fd5b80826080015161060491906124d3565b8561060f9190612515565b94505050808060010191505061055e565b5081341015610664576040517f08c379a000000000000000000000000000000000000000000000000000000000815260040161065b906125bb565b60405180910390fd5b60005b8151811015610908576000828281518110610685576106846123e3565b5b602002602001015160200151905060008383815181106106a8576106a76123e3565b5b602002602001015160000151905080600260008460000151815260200190815260200160002060060160008282546106e091906125db565b9250508190555060005b818110156108f857600360003373ffffffffffffffffffffffffffffffffffffffff1673ffffffffffffffffffffffffffffffffffffffff16815260200190815260200160002060008154809291906107429061260f565b9190505550604051806040016040528042815260200184815250600460003373ffffffffffffffffffffffffffffffffffffffff1673ffffffffffffffffffffffffffffffffffffffff1681526020019081526020016000206000600360003373ffffffffffffffffffffffffffffffffffffffff1673ffffffffffffffffffffffffffffffffffffffff1681526020019081526020016000205481526020019081526020016000206000820151816000015560208201518160010160008201518160000155602082015181600101908161081d9190612803565b5060408201518160020190816108339190612803565b5060608201518160030190816108499190612803565b506080820151816004015560a0820151816005015560c0820151816006015550509050507f1cbc5ab135991bd2b6a4b034a04aa2aa086dac1371cb9b16b8b5e2ed6b036bed33600360003373ffffffffffffffffffffffffffffffffffffffff1673ffffffffffffffffffffffffffffffffffffffff1681526020019081526020016000205485600001516040516108e3939291906128d5565b60405180910390a180806001019150506106ea565b5050508080600101915050610667565b50600560003373ffffffffffffffffffffffffffffffffffffffff1673ffffffffffffffffffffffffffffffffffffffff16815260200190815260200160002060006109549190611c44565b5050565b6000600260008481526020019081526020016000206040518060e001604052908160008201548152602001600182018054610992906123b2565b80601f01602080910402602001604051908101604052809291908181526020018280546109be906123b2565b8015610a0b5780601f106109e057610100808354040283529160200191610a0b565b820191906000526020600020905b8154815290600101906020018083116109ee57829003601f168201915b50505050508152602001600282018054610a24906123b2565b80601f0160208091040260200160405190810160405280929190818152602001828054610a50906123b2565b8015610a9d5780601f10610a7257610100808354040283529160200191610a9d565b820191906000526020600020905b815481529060010190602001808311610a8057829003601f168201915b50505050508152602001600382018054610ab6906123b2565b80601f0160208091040260200160405190810160405280929190818152602001828054610ae2906123b2565b8015610b2f5780601f10610b0457610100808354040283529160200191610b2f565b820191906000526020600020905b815481529060010190602001808311610b1257829003601f168201915b505050505081526020016004820154815260200160058201548152602001600682015481525050905060008160c0015111610b9f576040517f08c379a0000000000000000000000000000000000000000000000000000000008152600401610b9690612958565b60405180910390fd5b60011515600660003373ffffffffffffffffffffffffffffffffffffffff1673ffffffffffffffffffffffffffffffffffffffff168152602001908152602001600020600085815260200190815260200160002060009054906101000a900460ff16151503610e1e5760005b600560003373ffffffffffffffffffffffffffffffffffffffff1673ffffffffffffffffffffffffffffffffffffffff16815260200190815260200160002080549050811015610e185783600560003373ffffffffffffffffffffffffffffffffffffffff1673ffffffffffffffffffffffffffffffffffffffff1681526020019081526020016000208281548110610ca757610ca66123e3565b5b90600052602060002090600802016001016000015403610e0b5782600560003373ffffffffffffffffffffffffffffffffffffffff1673ffffffffffffffffffffffffffffffffffffffff1681526020019081526020016000208281548110610d1357610d126123e3565b5b90600052602060002090600802016000016000828254610d339190612515565b9250508190555081600560003373ffffffffffffffffffffffffffffffffffffffff1673ffffffffffffffffffffffffffffffffffffffff1681526020019081526020016000208281548110610d8c57610d8b6123e3565b5b9060005260206000209060080201600101600082015181600001556020820151816001019081610dbc9190612803565b506040820151816002019081610dd29190612803565b506060820151816003019081610de89190612803565b506080820151816004015560a0820151816005015560c082015181600601559050505b8080600101915050610c0b565b50610f8c565b60006040518060400160405280848152602001838152509050600560003373ffffffffffffffffffffffffffffffffffffffff1673ffffffffffffffffffffffffffffffffffffffff16815260200190815260200160002081908060018154018082558091505060019003906000526020600020906008020160009091909190915060008201518160000155602082015181600101600082015181600001556020820151816001019081610ed29190612803565b506040820151816002019081610ee89190612803565b506060820151816003019081610efe9190612803565b506080820151816004015560a0820151816005015560c08201518160060155505050506001600660003373ffffffffffffffffffffffffffffffffffffffff1673ffffffffffffffffffffffffffffffffffffffff168152602001908152602001600020600086815260200190815260200160002060006101000a81548160ff021916908315150217905550505b7fee8112c20e51facf39463fc4fa6a081eb315f7821042391acd42139834f7dd603382604051610fbd929190612978565b60405180910390a1505050565b60008054906101000a900473ffffffffffffffffffffffffffffffffffffffff1673ffffffffffffffffffffffffffffffffffffffff163373ffffffffffffffffffffffffffffffffffffffff1614611058576040517f08c379a000000000000000000000000000000000000000000000000000000000815260040161104f90612a1a565b60405180910390fd5b60008060009054906101000a900473ffffffffffffffffffffffffffffffffffffffff1673ffffffffffffffffffffffffffffffffffffffff164760405161109f90612a6b565b60006040518083038185875af1925050503d80600081146110dc576040519150601f19603f3d011682016040523d82523d6000602084013e6110e1565b606091505b50509050806110ef57600080fd5b50565b60015481565b60036020528060005260406000206000915090505481565b600460205281600052604060002060205280600052604060002060009150915050806000015490806001016040518060e001604052908160008201548152602001600182018054611160906123b2565b80601f016020809104026020016040519081016040528092919081815260200182805461118c906123b2565b80156111d95780601f106111ae576101008083540402835291602001916111d9565b820191906000526020600020905b8154815290600101906020018083116111bc57829003601f168201915b505050505081526020016002820180546111f2906123b2565b80601f016020809104026020016040519081016040528092919081815260200182805461121e906123b2565b801561126b5780601f106112405761010080835404028352916020019161126b565b820191906000526020600020905b81548152906001019060200180831161124e57829003601f168201915b50505050508152602001600382018054611284906123b2565b80601f01602080910402602001604051908101604052809291908181526020018280546112b0906123b2565b80156112fd5780601f106112d2576101008083540402835291602001916112fd565b820191906000526020600020905b8154815290600101906020018083116112e057829003601f168201915b505050505081526020016004820154815260200160058201548152602001600682015481525050905082565b60008054906101000a900473ffffffffffffffffffffffffffffffffffffffff1681565b6002602052806000526040600020600091509050806000015490806001018054611376906123b2565b80601f01602080910402602001604051908101604052809291908181526020018280546113a2906123b2565b80156113ef5780601f106113c4576101008083540402835291602001916113ef565b820191906000526020600020905b8154815290600101906020018083116113d257829003601f168201915b505050505090806002018054611404906123b2565b80601f0160208091040260200160405190810160405280929190818152602001828054611430906123b2565b801561147d5780601f106114525761010080835404028352916020019161147d565b820191906000526020600020905b81548152906001019060200180831161146057829003601f168201915b505050505090806003018054611492906123b2565b80601f01602080910402602001604051908101604052809291908181526020018280546114be906123b2565b801561150b5780601f106114e05761010080835404028352916020019161150b565b820191906000526020600020905b8154815290600101906020018083116114ee57829003601f168201915b5050505050908060040154908060050154908060060154905087565b6000600560003373ffffffffffffffffffffffffffffffffffffffff1673ffffffffffffffffffffffffffffffffffffffff16815260200190815260200160002080549050905090565b6000600560003373ffffffffffffffffffffffffffffffffffffffff1673ffffffffffffffffffffffffffffffffffffffff16815260200190815260200160002080549050116115f6576040517f08c379a00000000000000000000000000000000000000000000000000000000081526004016115ed90612acc565b60405180910390fd5b60005b600560003373ffffffffffffffffffffffffffffffffffffffff1673ffffffffffffffffffffffffffffffffffffffff168152602001908152602001600020805490508110156118745781600560003373ffffffffffffffffffffffffffffffffffffffff1673ffffffffffffffffffffffffffffffffffffffff1681526020019081526020016000208281548110611695576116946123e3565b5b90600052602060002090600802016001016000015403611867576000600560003373ffffffffffffffffffffffffffffffffffffffff1673ffffffffffffffffffffffffffffffffffffffff1681526020019081526020016000208281548110611702576117016123e3565b5b90600052602060002090600802016000015411611754576040517f08c379a000000000000000000000000000000000000000000000000000000000815260040161174b90612b38565b60405180910390fd5b600560003373ffffffffffffffffffffffffffffffffffffffff1673ffffffffffffffffffffffffffffffffffffffff16815260200190815260200160002081815481106117a5576117a46123e3565b5b906000526020600020906008020160000160008154809291906117c790612b58565b91905055507f2efe79622a3bf923cf258f449159abbeb9bdb3e93811afa0ec54ba3a0657e75733600560003373ffffffffffffffffffffffffffffffffffffffff1673ffffffffffffffffffffffffffffffffffffffff168152602001908152602001600020838154811061183f5761183e6123e3565b5b906000526020600020906008020160010160405161185e929190612d0b565b60405180910390a15b80806001019150506115f9565b5050565b6005602052816000526040600020818154811061189457600080fd5b906000526020600020906008020160009150915050806000015490806001016040518060e0016040529081600082015481526020016001820180546118d8906123b2565b80601f0160208091040260200160405190810160405280929190818152602001828054611904906123b2565b80156119515780601f1061192657610100808354040283529160200191611951565b820191906000526020600020905b81548152906001019060200180831161193457829003601f168201915b5050505050815260200160028201805461196a906123b2565b80601f0160208091040260200160405190810160405280929190818152602001828054611996906123b2565b80156119e35780601f106119b8576101008083540402835291602001916119e3565b820191906000526020600020905b8154815290600101906020018083116119c657829003601f168201915b505050505081526020016003820180546119fc906123b2565b80601f0160208091040260200160405190810160405280929190818152602001828054611a28906123b2565b8015611a755780601f10611a4a57610100808354040283529160200191611a75565b820191906000526020600020905b815481529060010190602001808311611a5857829003601f168201915b505050505081526020016004820154815260200160058201548152602001600682015481525050905082565b60008054906101000a900473ffffffffffffffffffffffffffffffffffffffff1673ffffffffffffffffffffffffffffffffffffffff163373ffffffffffffffffffffffffffffffffffffffff1614611b2f576040517f08c379a0000000000000000000000000000000000000000000000000000000008152600401611b2690612a1a565b60405180910390fd5b60006040518060e0016040528089815260200188815260200187815260200186815260200185815260200184815260200183815250905080600260008a8152602001908152602001600020600082015181600001556020820151816001019081611b999190612803565b506040820151816002019081611baf9190612803565b506060820151816003019081611bc59190612803565b506080820151816004015560a0820151816005015560c0820151816006015590505060016000815480929190611bfa9061260f565b91905055507ffdbe2a012c10ec01592653978eaa09b5ca60b143a0e617505b2ebcbd911ec5b8878584604051611c3293929190612d3b565b60405180910390a15050505050505050565b5080546000825560080290600052602060002090810190611c659190611c68565b50565b5b80821115611cda5760008082016000905560018201600080820160009055600182016000611c979190611cde565b600282016000611ca79190611cde565b600382016000611cb79190611cde565b600482016000905560058201600090556006820160009055505050600801611c69565b5090565b508054611cea906123b2565b6000825580601f10611cfc5750611d1b565b601f016020900490600052602060002090810190611d1a9190611d1e565b5b50565b5b80821115611d37576000816000905550600101611d1f565b5090565b6000604051905090565b600080fd5b600080fd5b6000819050919050565b611d6281611d4f565b8114611d6d57600080fd5b50565b600081359050611d7f81611d59565b92915050565b60008060408385031215611d9c57611d9b611d45565b5b6000611daa85828601611d70565b9250506020611dbb85828601611d70565b9150509250929050565b611dce81611d4f565b82525050565b6000602082019050611de96000830184611dc5565b92915050565b600073ffffffffffffffffffffffffffffffffffffffff82169050919050565b6000611e1a82611def565b9050919050565b611e2a81611e0f565b8114611e3557600080fd5b50565b600081359050611e4781611e21565b92915050565b600060208284031215611e6357611e62611d45565b5b6000611e7184828501611e38565b91505092915050565b60008060408385031215611e9157611e90611d45565b5b6000611e9f85828601611e38565b9250506020611eb085828601611d70565b9150509250929050565b611ec381611d4f565b82525050565b600081519050919050565b600082825260208201905092915050565b60005b83811015611f03578082015181840152602081019050611ee8565b60008484015250505050565b6000601f19601f8301169050919050565b6000611f2b82611ec9565b611f358185611ed4565b9350611f45818560208601611ee5565b611f4e81611f0f565b840191505092915050565b600060e083016000830151611f716000860182611eba565b5060208301518482036020860152611f898282611f20565b91505060408301518482036040860152611fa38282611f20565b91505060608301518482036060860152611fbd8282611f20565b9150506080830151611fd26080860182611eba565b5060a0830151611fe560a0860182611eba565b5060c0830151611ff860c0860182611eba565b508091505092915050565b60006040820190506120186000830185611dc5565b818103602083015261202a8184611f59565b90509392505050565b61203c81611e0f565b82525050565b60006020820190506120576000830184612033565b92915050565b60006020828403121561207357612072611d45565b5b600061208184828501611d70565b91505092915050565b600082825260208201905092915050565b60006120a682611ec9565b6120b0818561208a565b93506120c0818560208601611ee5565b6120c981611f0f565b840191505092915050565b600060e0820190506120e9600083018a611dc5565b81810360208301526120fb818961209b565b9050818103604083015261210f818861209b565b90508181036060830152612123818761209b565b90506121326080830186611dc5565b61213f60a0830185611dc5565b61214c60c0830184611dc5565b98975050505050505050565b600080fd5b600080fd5b7f4e487b7100000000000000000000000000000000000000000000000000000000600052604160045260246000fd5b61219a82611f0f565b810181811067ffffffffffffffff821117156121b9576121b8612162565b5b80604052505050565b60006121cc611d3b565b90506121d88282612191565b919050565b600067ffffffffffffffff8211156121f8576121f7612162565b5b61220182611f0f565b9050602081019050919050565b82818337600083830152505050565b600061223061222b846121dd565b6121c2565b90508281526020810184848401111561224c5761224b61215d565b5b61225784828561220e565b509392505050565b600082601f83011261227457612273612158565b5b813561228484826020860161221d565b91505092915050565b600080600080600080600060e0888a0312156122ac576122ab611d45565b5b60006122ba8a828b01611d70565b975050602088013567ffffffffffffffff8111156122db576122da611d4a565b5b6122e78a828b0161225f565b965050604088013567ffffffffffffffff81111561230857612307611d4a565b5b6123148a828b0161225f565b955050606088013567ffffffffffffffff81111561233557612334611d4a565b5b6123418a828b0161225f565b94505060806123528a828b01611d70565b93505060a06123638a828b01611d70565b92505060c06123748a828b01611d70565b91505092959891949750929550565b7f4e487b7100000000000000000000000000000000000000000000000000000000600052602260045260246000fd5b600060028204905060018216806123ca57607f821691505b6020821081036123dd576123dc612383565b5b50919050565b7f4e487b7100000000000000000000000000000000000000000000000000000000600052603260045260246000fd5b7f496e73756666696369656e742073746f636b20666f7220616e206974656d206960008201527f6e20746865206361727400000000000000000000000000000000000000000000602082015250565b600061246e602a8361208a565b915061247982612412565b604082019050919050565b6000602082019050818103600083015261249d81612461565b9050919050565b7f4e487b7100000000000000000000000000000000000000000000000000000000600052601160045260246000fd5b60006124de82611d4f565b91506124e983611d4f565b92508282026124f781611d4f565b9150828204841483151761250e5761250d6124a4565b5b5092915050565b600061252082611d4f565b915061252b83611d4f565b9250828201905080821115612543576125426124a4565b5b92915050565b7f496e73756666696369656e742066756e647320746f20636f6d706c657465207460008201527f6865207075726368617365000000000000000000000000000000000000000000602082015250565b60006125a5602b8361208a565b91506125b082612549565b604082019050919050565b600060208201905081810360008301526125d481612598565b9050919050565b60006125e682611d4f565b91506125f183611d4f565b9250828203905081811115612609576126086124a4565b5b92915050565b600061261a82611d4f565b91507fffffffffffffffffffffffffffffffffffffffffffffffffffffffffffffffff820361264c5761264b6124a4565b5b600182019050919050565b60008190508160005260206000209050919050565b60006020601f8301049050919050565b600082821b905092915050565b6000600883026126b97fffffffffffffffffffffffffffffffffffffffffffffffffffffffffffffffff8261267c565b6126c3868361267c565b95508019841693508086168417925050509392505050565b6000819050919050565b60006127006126fb6126f684611d4f565b6126db565b611d4f565b9050919050565b6000819050919050565b61271a836126e5565b61272e61272682612707565b848454612689565b825550505050565b600090565b612743612736565b61274e818484612711565b505050565b5b818110156127725761276760008261273b565b600181019050612754565b5050565b601f8211156127b75761278881612657565b6127918461266c565b810160208510156127a0578190505b6127b46127ac8561266c565b830182612753565b50505b505050565b600082821c905092915050565b60006127da600019846008026127bc565b1980831691505092915050565b60006127f383836127c9565b9150826002028217905092915050565b61280c82611ec9565b67ffffffffffffffff81111561282557612824612162565b5b61282f82546123b2565b61283a828285612776565b600060209050601f83116001811461286d576000841561285b578287015190505b61286585826127e7565b8655506128cd565b601f19841661287b86612657565b60005b828110156128a35784890151825560018201915060208501945060208101905061287e565b868310156128c057848901516128bc601f8916826127c9565b8355505b6001600288020188555050505b505050505050565b60006060820190506128ea6000830186612033565b6128f76020830185611dc5565b6129046040830184611dc5565b949350505050565b7f4f7574206f662053746f636b0000000000000000000000000000000000000000600082015250565b6000612942600c8361208a565b915061294d8261290c565b602082019050919050565b6000602082019050818103600083015261297181612935565b9050919050565b600060408201905061298d6000830185612033565b818103602083015261299f8184611f59565b90509392505050565b7f4f6e6c79206f776e65722063616e20706572666f726d2074686973206163746960008201527f6f6e000000000000000000000000000000000000000000000000000000000000602082015250565b6000612a0460228361208a565b9150612a0f826129a8565b604082019050919050565b60006020820190508181036000830152612a33816129f7565b9050919050565b600081905092915050565b50565b6000612a55600083612a3a565b9150612a6082612a45565b600082019050919050565b6000612a7682612a48565b9150819050919050565b7f4361727420697320656d70747900000000000000000000000000000000000000600082015250565b6000612ab6600d8361208a565b9150612ac182612a80565b602082019050919050565b60006020820190508181036000830152612ae581612aa9565b9050919050565b7f4361727420646f65736e277420686176652074686973206974656d0000000000600082015250565b6000612b22601b8361208a565b9150612b2d82612aec565b602082019050919050565b60006020820190508181036000830152612b5181612b15565b9050919050565b6000612b6382611d4f565b915060008203612b7657612b756124a4565b5b600182039050919050565b60008160001c9050919050565b6000819050919050565b6000612bab612ba683612b81565b612b8e565b9050919050565b60008154612bbf816123b2565b612bc98186611ed4565b94506001821660008114612be45760018114612bfa57612c2d565b60ff198316865281151560200286019350612c2d565b612c0385612657565b60005b83811015612c2557815481890152600182019150602081019050612c06565b808801955050505b50505092915050565b600060e083016000808401549050612c4d81612b98565b612c5a6000870182611eba565b50600184018583036020870152612c718382612bb2565b925050600284018583036040870152612c8a8382612bb2565b925050600384018583036060870152612ca38382612bb2565b92505060048401549050612cb681612b98565b612cc36080870182611eba565b5060058401549050612cd481612b98565b612ce160a0870182611eba565b5060068401549050612cf281612b98565b612cff60c0870182611eba565b50819250505092915050565b6000604082019050612d206000830185612033565b8181036020830152612d328184612c36565b90509392505050565b60006060820190508181036000830152612d55818661209b565b9050612d646020830185611dc5565b612d716040830184611dc5565b94935050505056fea26469706673582212202c0194832a03789fc0d121c4045d47af04cea76f7d47f6ab74a00f87ab7383db64736f6c63430008180033",
  "linkReferences": {},
  "deployedLinkReferences": {}
}